
Aufgabe
-------
1. Beobachten Sie den Datenverkehr auf den Hosts C und R1 mit tcpdump -xx
2. Führen Sie auf Host D den Befehl ping 192.168.0.33 aus


Mitschnitt
----------

D:
```
root@d:~# ping -c1 192.168.0.33
PING 192.168.0.33 (192.168.0.33) 56(84) bytes of data.
64 bytes from 192.168.0.33: icmp_seq=1 ttl=64 time=1.68 ms

--- 192.168.0.33 ping statistics ---
1 packets transmitted, 1 received, 0% packet loss, time 0ms
rtt min/avg/max/mdev = 1.683/1.683/1.683/0.000 ms
```

R1:

```
root@r1:~# tcpdump -xx -ni eth1
tcpdump: verbose output suppressed, use -v or -vv for full protocol decode
listening on eth1, link-type EN10MB (Ethernet), capture size 262144 bytes
18:54:31.809214 ARP, Request who-has 192.168.0.33 tell 192.168.0.44, length 28
        0x0000:  ffff ffff ffff fa16 3e59 e7fb 0806 0001
        0x0010:  0800 0604 0001 fa16 3e59 e7fb c0a8 002c
        0x0020:  0000 0000 0000 c0a8 0021
^C
1 packet captured
1 packet received by filter
0 packets dropped by kernel
```

C:

```
root@c:~# tcpdump -ni eth1 -xx
tcpdump: verbose output suppressed, use -v or -vv for full protocol decode
listening on eth1, link-type EN10MB (Ethernet), capture size 262144 bytes
18:54:31.808452 ARP, Request who-has 192.168.0.33 tell 192.168.0.44, length 28
        0x0000:  ffff ffff ffff fa16 3e59 e7fb 0806 0001
        0x0010:  0800 0604 0001 fa16 3e59 e7fb c0a8 002c
        0x0020:  0000 0000 0000 c0a8 0021
18:54:31.808505 ARP, Reply 192.168.0.33 is-at fa:16:3e:ef:89:69, length 28
        0x0000:  fa16 3e59 e7fb fa16 3eef 8969 0806 0001
        0x0010:  0800 0604 0002 fa16 3eef 8969 c0a8 0021
        0x0020:  fa16 3e59 e7fb c0a8 002c
18:54:31.809169 IP 192.168.0.44 > 192.168.0.33: ICMP echo request, id 768, seq 1, length 64
        0x0000:  fa16 3eef 8969 fa16 3e59 e7fb 0800 4500
        0x0010:  0054 e77e 4000 4001 d18c c0a8 002c c0a8
        0x0020:  0021 0800 a442 0300 0001 c73b f157 0000
        0x0030:  0000 cd55 0c00 0000 0000 1011 1213 1415
        0x0040:  1617 1819 1a1b 1c1d 1e1f 2021 2223 2425
        0x0050:  2627 2829 2a2b 2c2d 2e2f 3031 3233 3435
        0x0060:  3637
18:54:31.809197 IP 192.168.0.33 > 192.168.0.44: ICMP echo reply, id 768, seq 1, length 64
        0x0000:  fa16 3e59 e7fb fa16 3eef 8969 0800 4500
        0x0010:  0054 59ce 0000 4001 9f3d c0a8 0021 c0a8
        0x0020:  002c 0000 ac42 0300 0001 c73b f157 0000
        0x0030:  0000 cd55 0c00 0000 0000 1011 1213 1415
        0x0040:  1617 1819 1a1b 1c1d 1e1f 2021 2223 2425
        0x0050:  2627 2829 2a2b 2c2d 2e2f 3031 3233 3435
        0x0060:  3637
18:54:36.822333 ARP, Request who-has 192.168.0.44 tell 192.168.0.33, length 28
        0x0000:  fa16 3e59 e7fb fa16 3eef 8969 0806 0001
        0x0010:  0800 0604 0001 fa16 3eef 8969 c0a8 0021
        0x0020:  0000 0000 0000 c0a8 002c
18:54:36.823198 ARP, Reply 192.168.0.44 is-at fa:16:3e:59:e7:fb, length 28
        0x0000:  fa16 3eef 8969 fa16 3e59 e7fb 0806 0001
        0x0010:  0800 0604 0002 fa16 3e59 e7fb c0a8 002c
        0x0020:  fa16 3eef 8969 c0a8 0021
^C
6 packets captured
6 packets received by filter
0 packets dropped by kernel
```
